{
  "_format": "hh-sol-artifact-1",
  "contractName": "PublicResolver",
  "sourceName": "contracts/PublicResolver.sol",
  "abi": [
    {
      "inputs": [
        {
          "internalType": "contract ENS",
          "name": "ensAddr",
          "type": "address"
        }
      ],
      "stateMutability": "nonpayable",
      "type": "constructor"
    },
    {
      "anonymous": false,
      "inputs": [
        {
          "indexed": true,
          "internalType": "bytes32",
          "name": "node",
          "type": "bytes32"
        },
        {
          "indexed": true,
          "internalType": "uint256",
          "name": "contentType",
          "type": "uint256"
        }
      ],
      "name": "ABIChanged",
      "type": "event"
    },
    {
      "anonymous": false,
      "inputs": [
        {
          "indexed": true,
          "internalType": "bytes32",
          "name": "node",
          "type": "bytes32"
        },
        {
          "indexed": false,
          "internalType": "address",
          "name": "a",
          "type": "address"
        }
      ],
      "name": "AddrChanged",
      "type": "event"
    },
    {
      "anonymous": false,
      "inputs": [
        {
          "indexed": true,
          "internalType": "bytes32",
          "name": "node",
          "type": "bytes32"
        },
        {
          "indexed": false,
          "internalType": "bytes32",
          "name": "hash",
          "type": "bytes32"
        }
      ],
      "name": "ContentChanged",
      "type": "event"
    },
    {
      "anonymous": false,
      "inputs": [
        {
          "indexed": true,
          "internalType": "bytes32",
          "name": "node",
          "type": "bytes32"
        },
        {
          "indexed": false,
          "internalType": "bytes",
          "name": "hash",
          "type": "bytes"
        }
      ],
      "name": "MultihashChanged",
      "type": "event"
    },
    {
      "anonymous": false,
      "inputs": [
        {
          "indexed": true,
          "internalType": "bytes32",
          "name": "node",
          "type": "bytes32"
        },
        {
          "indexed": false,
          "internalType": "string",
          "name": "name",
          "type": "string"
        }
      ],
      "name": "NameChanged",
      "type": "event"
    },
    {
      "anonymous": false,
      "inputs": [
        {
          "indexed": true,
          "internalType": "bytes32",
          "name": "node",
          "type": "bytes32"
        },
        {
          "indexed": false,
          "internalType": "bytes32",
          "name": "x",
          "type": "bytes32"
        },
        {
          "indexed": false,
          "internalType": "bytes32",
          "name": "y",
          "type": "bytes32"
        }
      ],
      "name": "PubkeyChanged",
      "type": "event"
    },
    {
      "anonymous": false,
      "inputs": [
        {
          "indexed": true,
          "internalType": "bytes32",
          "name": "node",
          "type": "bytes32"
        },
        {
          "indexed": false,
          "internalType": "string",
          "name": "indexedKey",
          "type": "string"
        },
        {
          "indexed": false,
          "internalType": "string",
          "name": "key",
          "type": "string"
        }
      ],
      "name": "TextChanged",
      "type": "event"
    },
    {
      "inputs": [
        {
          "internalType": "bytes32",
          "name": "node",
          "type": "bytes32"
        }
      ],
      "name": "addr",
      "outputs": [
        {
          "internalType": "address",
          "name": "",
          "type": "address"
        }
      ],
      "stateMutability": "view",
      "type": "function"
    },
    {
      "inputs": [
        {
          "internalType": "bytes32",
          "name": "node",
          "type": "bytes32"
        }
      ],
      "name": "content",
      "outputs": [
        {
          "internalType": "bytes32",
          "name": "",
          "type": "bytes32"
        }
      ],
      "stateMutability": "view",
      "type": "function"
    },
    {
      "inputs": [
        {
          "internalType": "bytes32",
          "name": "node",
          "type": "bytes32"
        }
      ],
      "name": "getAll",
      "outputs": [
        {
          "internalType": "address",
          "name": "addr",
          "type": "address"
        },
        {
          "internalType": "bytes32",
          "name": "content",
          "type": "bytes32"
        },
        {
          "internalType": "bytes",
          "name": "multihash",
          "type": "bytes"
        },
        {
          "internalType": "bytes32",
          "name": "x",
          "type": "bytes32"
        },
        {
          "internalType": "bytes32",
          "name": "y",
          "type": "bytes32"
        },
        {
          "internalType": "string",
          "name": "name",
          "type": "string"
        }
      ],
      "stateMutability": "view",
      "type": "function"
    },
    {
      "inputs": [
        {
          "internalType": "bytes32",
          "name": "node",
          "type": "bytes32"
        }
      ],
      "name": "multihash",
      "outputs": [
        {
          "internalType": "bytes",
          "name": "",
          "type": "bytes"
        }
      ],
      "stateMutability": "view",
      "type": "function"
    },
    {
      "inputs": [
        {
          "internalType": "bytes32",
          "name": "node",
          "type": "bytes32"
        }
      ],
      "name": "name",
      "outputs": [
        {
          "internalType": "string",
          "name": "",
          "type": "string"
        }
      ],
      "stateMutability": "view",
      "type": "function"
    },
    {
      "inputs": [
        {
          "internalType": "bytes32",
          "name": "node",
          "type": "bytes32"
        }
      ],
      "name": "pubkey",
      "outputs": [
        {
          "internalType": "bytes32",
          "name": "x",
          "type": "bytes32"
        },
        {
          "internalType": "bytes32",
          "name": "y",
          "type": "bytes32"
        }
      ],
      "stateMutability": "view",
      "type": "function"
    },
    {
      "inputs": [
        {
          "internalType": "bytes32",
          "name": "node",
          "type": "bytes32"
        },
        {
          "internalType": "uint256",
          "name": "contentType",
          "type": "uint256"
        },
        {
          "internalType": "bytes",
          "name": "data",
          "type": "bytes"
        }
      ],
      "name": "setABI",
      "outputs": [],
      "stateMutability": "nonpayable",
      "type": "function"
    },
    {
      "inputs": [
        {
          "internalType": "bytes32",
          "name": "node",
          "type": "bytes32"
        },
        {
          "internalType": "address",
          "name": "addr",
          "type": "address"
        }
      ],
      "name": "setAddr",
      "outputs": [],
      "stateMutability": "nonpayable",
      "type": "function"
    },
    {
      "inputs": [
        {
          "internalType": "bytes32",
          "name": "node",
          "type": "bytes32"
        },
        {
          "internalType": "address",
          "name": "addr",
          "type": "address"
        },
        {
          "internalType": "bytes32",
          "name": "content",
          "type": "bytes32"
        },
        {
          "internalType": "bytes",
          "name": "multihash",
          "type": "bytes"
        },
        {
          "internalType": "bytes32",
          "name": "x",
          "type": "bytes32"
        },
        {
          "internalType": "bytes32",
          "name": "y",
          "type": "bytes32"
        },
        {
          "internalType": "string",
          "name": "name",
          "type": "string"
        }
      ],
      "name": "setAll",
      "outputs": [],
      "stateMutability": "nonpayable",
      "type": "function"
    },
    {
      "inputs": [
        {
          "internalType": "bytes32",
          "name": "node",
          "type": "bytes32"
        },
        {
          "internalType": "bytes32",
          "name": "hash",
          "type": "bytes32"
        }
      ],
      "name": "setContent",
      "outputs": [],
      "stateMutability": "nonpayable",
      "type": "function"
    },
    {
      "inputs": [
        {
          "internalType": "bytes32",
          "name": "node",
          "type": "bytes32"
        },
        {
          "internalType": "bytes",
          "name": "hash",
          "type": "bytes"
        }
      ],
      "name": "setMultihash",
      "outputs": [],
      "stateMutability": "nonpayable",
      "type": "function"
    },
    {
      "inputs": [
        {
          "internalType": "bytes32",
          "name": "node",
          "type": "bytes32"
        },
        {
          "internalType": "string",
          "name": "name",
          "type": "string"
        }
      ],
      "name": "setName",
      "outputs": [],
      "stateMutability": "nonpayable",
      "type": "function"
    },
    {
      "inputs": [
        {
          "internalType": "bytes32",
          "name": "node",
          "type": "bytes32"
        },
        {
          "internalType": "bytes32",
          "name": "x",
          "type": "bytes32"
        },
        {
          "internalType": "bytes32",
          "name": "y",
          "type": "bytes32"
        }
      ],
      "name": "setPubkey",
      "outputs": [],
      "stateMutability": "nonpayable",
      "type": "function"
    },
    {
      "inputs": [
        {
          "internalType": "bytes32",
          "name": "node",
          "type": "bytes32"
        },
        {
          "internalType": "string",
          "name": "key",
          "type": "string"
        },
        {
          "internalType": "string",
          "name": "value",
          "type": "string"
        }
      ],
      "name": "setText",
      "outputs": [],
      "stateMutability": "nonpayable",
      "type": "function"
    },
    {
      "inputs": [
        {
          "internalType": "bytes4",
          "name": "interfaceID",
          "type": "bytes4"
        }
      ],
      "name": "supportsInterface",
      "outputs": [
        {
          "internalType": "bool",
          "name": "",
          "type": "bool"
        }
      ],
      "stateMutability": "pure",
      "type": "function"
    },
    {
      "inputs": [
        {
          "internalType": "bytes32",
          "name": "node",
          "type": "bytes32"
        },
        {
          "internalType": "string",
          "name": "key",
          "type": "string"
        }
      ],
      "name": "text",
      "outputs": [
        {
          "internalType": "string",
          "name": "",
          "type": "string"
        }
      ],
      "stateMutability": "view",
      "type": "function"
    }
  ],
  "bytecode": "0x60806040523480156200001157600080fd5b50604051620021db380380620021db833981810160405281019062000037919062000095565b806000806101000a81548173ffffffffffffffffffffffffffffffffffffffff021916908373ffffffffffffffffffffffffffffffffffffffff1602179055505062000123565b6000815190506200008f8162000109565b92915050565b600060208284031215620000a857600080fd5b6000620000b8848285016200007e565b91505092915050565b6000620000ce82620000e9565b9050919050565b6000620000e282620000c1565b9050919050565b600073ffffffffffffffffffffffffffffffffffffffff82169050919050565b6200011481620000d5565b81146200012057600080fd5b50565b6120a880620001336000396000f3fe608060405234801561001057600080fd5b50600436106101005760003560e01c80637737221311610097578063c869023311610066578063c8690233146102b9578063d5fa2b00146102ea578063e89401a114610306578063ed80e1f71461033657610100565b806377372213146102495780639f3a206d14610265578063aa4cb54714610281578063c3d014d61461029d57610100565b80633b3b57de116100d35780633b3b57de1461019d57806359d1d43c146101cd578063623195b0146101fd578063691f34311461021957610100565b806301ffc9a71461010557806310f13a8c1461013557806329cd62ea146101515780632dff69411461016d575b600080fd5b61011f600480360381019061011a9190611ae3565b61036b565b60405161012c9190611c7d565b60405180910390f35b61014f600480360381019061014a91906119fd565b6105e5565b005b61016b60048036038101906101669190611906565b61074d565b005b61018760048036038101906101829190611797565b6108b0565b6040516101949190611c98565b60405180910390f35b6101b760048036038101906101b29190611797565b6108d0565b6040516101c49190611bf3565b60405180910390f35b6101e760048036038101906101e291906119a9565b610910565b6040516101f49190611cfe565b60405180910390f35b61021760048036038101906102129190611a7c565b6109d5565b005b610233600480360381019061022e9190611797565b610b41565b6040516102409190611cfe565b60405180910390f35b610263600480360381019061025e91906119a9565b610be9565b005b61027f600480360381019061027a91906117fc565b610d32565b005b61029b60048036038101906102969190611955565b610e50565b005b6102b760048036038101906102b291906118ca565b610f99565b005b6102d360048036038101906102ce9190611797565b6110d2565b6040516102e1929190611cb3565b60405180910390f35b61030460048036038101906102ff91906117c0565b611112565b005b610320600480360381019061031b9190611797565b611285565b60405161032d9190611cdc565b60405180910390f35b610350600480360381019061034b9190611797565b61132d565b60405161036296959493929190611c0e565b60405180910390f35b6000633b3b57de60e01b7bffffffffffffffffffffffffffffffffffffffffffffffffffffffff1916827bffffffffffffffffffffffffffffffffffffffffffffffffffffffff19161480610404575063d8389dc560e01b7bffffffffffffffffffffffffffffffffffffffffffffffffffffffff1916827bffffffffffffffffffffffffffffffffffffffffffffffffffffffff1916145b80610453575063691f343160e01b7bffffffffffffffffffffffffffffffffffffffffffffffffffffffff1916827bffffffffffffffffffffffffffffffffffffffffffffffffffffffff1916145b806104a25750632203ab5660e01b7bffffffffffffffffffffffffffffffffffffffffffffffffffffffff1916827bffffffffffffffffffffffffffffffffffffffffffffffffffffffff1916145b806104f1575063c869023360e01b7bffffffffffffffffffffffffffffffffffffffffffffffffffffffff1916827bffffffffffffffffffffffffffffffffffffffffffffffffffffffff1916145b8061054057506359d1d43c60e01b7bffffffffffffffffffffffffffffffffffffffffffffffffffffffff1916827bffffffffffffffffffffffffffffffffffffffffffffffffffffffff1916145b8061058f575063e89401a160e01b7bffffffffffffffffffffffffffffffffffffffffffffffffffffffff1916827bffffffffffffffffffffffffffffffffffffffffffffffffffffffff1916145b806105de57506301ffc9a760e01b7bffffffffffffffffffffffffffffffffffffffffffffffffffffffff1916827bffffffffffffffffffffffffffffffffffffffffffffffffffffffff1916145b9050919050565b823373ffffffffffffffffffffffffffffffffffffffff1660008054906101000a900473ffffffffffffffffffffffffffffffffffffffff1673ffffffffffffffffffffffffffffffffffffffff166302571be3836040518263ffffffff1660e01b81526004016106569190611c98565b60206040518083038186803b15801561066e57600080fd5b505afa158015610682573d6000803e3d6000fd5b505050506040513d601f19601f820116820180604052508101906106a6919061176e565b73ffffffffffffffffffffffffffffffffffffffff16146106c657600080fd5b8160016000868152602001908152602001600020600501846040516106eb9190611bdc565b9081526020016040518091039020908051906020019061070c92919061150c565b50837fd8c9334b1a9c2f9da342a0a2b32629c1a229b6445dad78947f674b44444a7550848560405161073f929190611d20565b60405180910390a250505050565b823373ffffffffffffffffffffffffffffffffffffffff1660008054906101000a900473ffffffffffffffffffffffffffffffffffffffff1673ffffffffffffffffffffffffffffffffffffffff166302571be3836040518263ffffffff1660e01b81526004016107be9190611c98565b60206040518083038186803b1580156107d657600080fd5b505afa1580156107ea573d6000803e3d6000fd5b505050506040513d601f19601f8201168201806040525081019061080e919061176e565b73ffffffffffffffffffffffffffffffffffffffff161461082e57600080fd5b604051806040016040528084815260200183815250600160008681526020019081526020016000206003016000820151816000015560208201518160010155905050837f1d6f5e03d3f63eb58751986629a5439baee5079ff04f345becb66e23eb154e4684846040516108a2929190611cb3565b60405180910390a250505050565b600060016000838152602001908152602001600020600101549050919050565b60006001600083815260200190815260200160002060000160009054906101000a900473ffffffffffffffffffffffffffffffffffffffff169050919050565b606060016000848152602001908152602001600020600501826040516109369190611bdc565b9081526020016040518091039020805461094f90611f15565b80601f016020809104026020016040519081016040528092919081815260200182805461097b90611f15565b80156109c85780601f1061099d576101008083540402835291602001916109c8565b820191906000526020600020905b8154815290600101906020018083116109ab57829003601f168201915b5050505050905092915050565b823373ffffffffffffffffffffffffffffffffffffffff1660008054906101000a900473ffffffffffffffffffffffffffffffffffffffff1673ffffffffffffffffffffffffffffffffffffffff166302571be3836040518263ffffffff1660e01b8152600401610a469190611c98565b60206040518083038186803b158015610a5e57600080fd5b505afa158015610a72573d6000803e3d6000fd5b505050506040513d601f19601f82011682018060405250810190610a96919061176e565b73ffffffffffffffffffffffffffffffffffffffff1614610ab657600080fd5b600083600185610ac69190611e21565b1614610ad157600080fd5b816001600086815260200190815260200160002060060160008581526020019081526020016000209080519060200190610b0c929190611592565b5082847faa121bbeef5f32f5961a2a28966e769023910fc9479059ee3495d4c1a696efe360405160405180910390a350505050565b6060600160008381526020019081526020016000206002018054610b6490611f15565b80601f0160208091040260200160405190810160405280929190818152602001828054610b9090611f15565b8015610bdd5780601f10610bb257610100808354040283529160200191610bdd565b820191906000526020600020905b815481529060010190602001808311610bc057829003601f168201915b50505050509050919050565b813373ffffffffffffffffffffffffffffffffffffffff1660008054906101000a900473ffffffffffffffffffffffffffffffffffffffff1673ffffffffffffffffffffffffffffffffffffffff166302571be3836040518263ffffffff1660e01b8152600401610c5a9190611c98565b60206040518083038186803b158015610c7257600080fd5b505afa158015610c86573d6000803e3d6000fd5b505050506040513d601f19601f82011682018060405250810190610caa919061176e565b73ffffffffffffffffffffffffffffffffffffffff1614610cca57600080fd5b81600160008581526020019081526020016000206002019080519060200190610cf492919061150c565b50827fb7d29e911041e8d9b843369e890bcb72c9388692ba48b65ac54e7214c4c348f783604051610d259190611cfe565b60405180910390a2505050565b863373ffffffffffffffffffffffffffffffffffffffff1660008054906101000a900473ffffffffffffffffffffffffffffffffffffffff1673ffffffffffffffffffffffffffffffffffffffff166302571be3836040518263ffffffff1660e01b8152600401610da39190611c98565b60206040518083038186803b158015610dbb57600080fd5b505afa158015610dcf573d6000803e3d6000fd5b505050506040513d601f19601f82011682018060405250810190610df3919061176e565b73ffffffffffffffffffffffffffffffffffffffff1614610e1357600080fd5b610e1d8888611112565b610e278887610f99565b610e318886610e50565b610e3c88858561074d565b610e468883610be9565b5050505050505050565b813373ffffffffffffffffffffffffffffffffffffffff1660008054906101000a900473ffffffffffffffffffffffffffffffffffffffff1673ffffffffffffffffffffffffffffffffffffffff166302571be3836040518263ffffffff1660e01b8152600401610ec19190611c98565b60206040518083038186803b158015610ed957600080fd5b505afa158015610eed573d6000803e3d6000fd5b505050506040513d601f19601f82011682018060405250810190610f11919061176e565b73ffffffffffffffffffffffffffffffffffffffff1614610f3157600080fd5b81600160008581526020019081526020016000206007019080519060200190610f5b929190611592565b50827fc0b0fc07269fc2749adada3221c095a1d2187b2d075b51c915857b520f3a502183604051610f8c9190611cdc565b60405180910390a2505050565b813373ffffffffffffffffffffffffffffffffffffffff1660008054906101000a900473ffffffffffffffffffffffffffffffffffffffff1673ffffffffffffffffffffffffffffffffffffffff166302571be3836040518263ffffffff1660e01b815260040161100a9190611c98565b60206040518083038186803b15801561102257600080fd5b505afa158015611036573d6000803e3d6000fd5b505050506040513d601f19601f8201168201806040525081019061105a919061176e565b73ffffffffffffffffffffffffffffffffffffffff161461107a57600080fd5b816001600085815260200190815260200160002060010181905550827f0424b6fe0d9c3bdbece0e7879dc241bb0c22e900be8b6c168b4ee08bd9bf83bc836040516110c59190611c98565b60405180910390a2505050565b6000806001600084815260200190815260200160002060030160000154600160008581526020019081526020016000206003016001015491509150915091565b813373ffffffffffffffffffffffffffffffffffffffff1660008054906101000a900473ffffffffffffffffffffffffffffffffffffffff1673ffffffffffffffffffffffffffffffffffffffff166302571be3836040518263ffffffff1660e01b81526004016111839190611c98565b60206040518083038186803b15801561119b57600080fd5b505afa1580156111af573d6000803e3d6000fd5b505050506040513d601f19601f820116820180604052508101906111d3919061176e565b73ffffffffffffffffffffffffffffffffffffffff16146111f357600080fd5b816001600085815260200190815260200160002060000160006101000a81548173ffffffffffffffffffffffffffffffffffffffff021916908373ffffffffffffffffffffffffffffffffffffffff160217905550827f52d7d861f09ab3d26239d492e8968629f95e9e318cf0b73bfddc441522a15fd2836040516112789190611bf3565b60405180910390a2505050565b60606001600083815260200190815260200160002060070180546112a890611f15565b80601f01602080910402602001604051908101604052809291908181526020018280546112d490611f15565b80156113215780601f106112f657610100808354040283529160200191611321565b820191906000526020600020905b81548152906001019060200180831161130457829003601f168201915b50505050509050919050565b600080606060008060606001600088815260200190815260200160002060000160009054906101000a900473ffffffffffffffffffffffffffffffffffffffff169550600160008881526020019081526020016000206001015494506001600088815260200190815260200160002060070180546113aa90611f15565b80601f01602080910402602001604051908101604052809291908181526020018280546113d690611f15565b80156114235780601f106113f857610100808354040283529160200191611423565b820191906000526020600020905b81548152906001019060200180831161140657829003601f168201915b50505050509350600160008881526020019081526020016000206003016000015492506001600088815260200190815260200160002060030160010154915060016000888152602001908152602001600020600201805461148390611f15565b80601f01602080910402602001604051908101604052809291908181526020018280546114af90611f15565b80156114fc5780601f106114d1576101008083540402835291602001916114fc565b820191906000526020600020905b8154815290600101906020018083116114df57829003601f168201915b5050505050905091939550919395565b82805461151890611f15565b90600052602060002090601f01602090048101928261153a5760008555611581565b82601f1061155357805160ff1916838001178555611581565b82800160010185558215611581579182015b82811115611580578251825591602001919060010190611565565b5b50905061158e9190611618565b5090565b82805461159e90611f15565b90600052602060002090601f0160209004810192826115c05760008555611607565b82601f106115d957805160ff1916838001178555611607565b82800160010185558215611607579182015b828111156116065782518255916020019190600101906115eb565b5b5090506116149190611618565b5090565b5b80821115611631576000816000905550600101611619565b5090565b600061164861164384611d7c565b611d57565b90508281526020810184848401111561166057600080fd5b61166b848285611ed3565b509392505050565b600061168661168184611dad565b611d57565b90508281526020810184848401111561169e57600080fd5b6116a9848285611ed3565b509392505050565b6000813590506116c081612016565b92915050565b6000815190506116d581612016565b92915050565b6000813590506116ea8161202d565b92915050565b6000813590506116ff81612044565b92915050565b600082601f83011261171657600080fd5b8135611726848260208601611635565b91505092915050565b600082601f83011261174057600080fd5b8135611750848260208601611673565b91505092915050565b6000813590506117688161205b565b92915050565b60006020828403121561178057600080fd5b600061178e848285016116c6565b91505092915050565b6000602082840312156117a957600080fd5b60006117b7848285016116db565b91505092915050565b600080604083850312156117d357600080fd5b60006117e1858286016116db565b92505060206117f2858286016116b1565b9150509250929050565b600080600080600080600060e0888a03121561181757600080fd5b60006118258a828b016116db565b97505060206118368a828b016116b1565b96505060406118478a828b016116db565b955050606088013567ffffffffffffffff81111561186457600080fd5b6118708a828b01611705565b94505060806118818a828b016116db565b93505060a06118928a828b016116db565b92505060c088013567ffffffffffffffff8111156118af57600080fd5b6118bb8a828b0161172f565b91505092959891949750929550565b600080604083850312156118dd57600080fd5b60006118eb858286016116db565b92505060206118fc858286016116db565b9150509250929050565b60008060006060848603121561191b57600080fd5b6000611929868287016116db565b935050602061193a868287016116db565b925050604061194b868287016116db565b9150509250925092565b6000806040838503121561196857600080fd5b6000611976858286016116db565b925050602083013567ffffffffffffffff81111561199357600080fd5b61199f85828601611705565b9150509250929050565b600080604083850312156119bc57600080fd5b60006119ca858286016116db565b925050602083013567ffffffffffffffff8111156119e757600080fd5b6119f38582860161172f565b9150509250929050565b600080600060608486031215611a1257600080fd5b6000611a20868287016116db565b935050602084013567ffffffffffffffff811115611a3d57600080fd5b611a498682870161172f565b925050604084013567ffffffffffffffff811115611a6657600080fd5b611a728682870161172f565b9150509250925092565b600080600060608486031215611a9157600080fd5b6000611a9f868287016116db565b9350506020611ab086828701611759565b925050604084013567ffffffffffffffff811115611acd57600080fd5b611ad986828701611705565b9150509250925092565b600060208284031215611af557600080fd5b6000611b03848285016116f0565b91505092915050565b611b1581611e55565b82525050565b611b2481611e67565b82525050565b611b3381611e73565b82525050565b6000611b4482611dde565b611b4e8185611df4565b9350611b5e818560208601611ee2565b611b6781612005565b840191505092915050565b6000611b7d82611de9565b611b878185611e05565b9350611b97818560208601611ee2565b611ba081612005565b840191505092915050565b6000611bb682611de9565b611bc08185611e16565b9350611bd0818560208601611ee2565b80840191505092915050565b6000611be88284611bab565b915081905092915050565b6000602082019050611c086000830184611b0c565b92915050565b600060c082019050611c236000830189611b0c565b611c306020830188611b2a565b8181036040830152611c428187611b39565b9050611c516060830186611b2a565b611c5e6080830185611b2a565b81810360a0830152611c708184611b72565b9050979650505050505050565b6000602082019050611c926000830184611b1b565b92915050565b6000602082019050611cad6000830184611b2a565b92915050565b6000604082019050611cc86000830185611b2a565b611cd56020830184611b2a565b9392505050565b60006020820190508181036000830152611cf68184611b39565b905092915050565b60006020820190508181036000830152611d188184611b72565b905092915050565b60006040820190508181036000830152611d3a8185611b72565b90508181036020830152611d4e8184611b72565b90509392505050565b6000611d61611d72565b9050611d6d8282611f47565b919050565b6000604051905090565b600067ffffffffffffffff821115611d9757611d96611fd6565b5b611da082612005565b9050602081019050919050565b600067ffffffffffffffff821115611dc857611dc7611fd6565b5b611dd182612005565b9050602081019050919050565b600081519050919050565b600081519050919050565b600082825260208201905092915050565b600082825260208201905092915050565b600081905092915050565b6000611e2c82611ec9565b9150611e3783611ec9565b925082821015611e4a57611e49611f78565b5b828203905092915050565b6000611e6082611ea9565b9050919050565b60008115159050919050565b6000819050919050565b60007fffffffff0000000000000000000000000000000000000000000000000000000082169050919050565b600073ffffffffffffffffffffffffffffffffffffffff82169050919050565b6000819050919050565b82818337600083830152505050565b60005b83811015611f00578082015181840152602081019050611ee5565b83811115611f0f576000848401525b50505050565b60006002820490506001821680611f2d57607f821691505b60208210811415611f4157611f40611fa7565b5b50919050565b611f5082612005565b810181811067ffffffffffffffff82111715611f6f57611f6e611fd6565b5b80604052505050565b7f4e487b7100000000000000000000000000000000000000000000000000000000600052601160045260246000fd5b7f4e487b7100000000000000000000000000000000000000000000000000000000600052602260045260246000fd5b7f4e487b7100000000000000000000000000000000000000000000000000000000600052604160045260246000fd5b6000601f19601f8301169050919050565b61201f81611e55565b811461202a57600080fd5b50565b61203681611e73565b811461204157600080fd5b50565b61204d81611e7d565b811461205857600080fd5b50565b61206481611ec9565b811461206f57600080fd5b5056fea2646970667358221220fcacdf979c52b5c8ee8ed41418d5ad60deb908bd74c5ac20c0d3e4ff153a1c4c64736f6c63430008040033",
  "linkReferences": {},
  "deployedLinkReferences": {}
}