{
  "_format": "hh-sol-artifact-1",
  "contractName": "SubdomainRegistrar",
  "sourceName": "contracts/SubdomainRegistrar.sol",
  "abi": [
    {
      "inputs": [
        {
          "internalType": "contract ENS",
          "name": "ensAddr",
          "type": "address"
        },
        {
          "internalType": "bytes32",
          "name": "node",
          "type": "bytes32"
        }
      ],
      "stateMutability": "nonpayable",
      "type": "constructor"
    },
    {
      "anonymous": false,
      "inputs": [
        {
          "indexed": false,
          "internalType": "address",
          "name": "owner",
          "type": "address"
        },
        {
          "indexed": false,
          "internalType": "bytes32",
          "name": "label",
          "type": "bytes32"
        }
      ],
      "name": "Log",
      "type": "event"
    },
    {
      "inputs": [],
      "name": "ens",
      "outputs": [
        {
          "internalType": "contract ENS",
          "name": "",
          "type": "address"
        }
      ],
      "stateMutability": "view",
      "type": "function"
    },
    {
      "inputs": [
        {
          "internalType": "bytes32",
          "name": "",
          "type": "bytes32"
        }
      ],
      "name": "expiryTimes",
      "outputs": [
        {
          "internalType": "uint256",
          "name": "",
          "type": "uint256"
        }
      ],
      "stateMutability": "view",
      "type": "function"
    },
    {
      "inputs": [
        {
          "internalType": "bytes32",
          "name": "label",
          "type": "bytes32"
        },
        {
          "internalType": "address",
          "name": "owner",
          "type": "address"
        }
      ],
      "name": "register",
      "outputs": [],
      "stateMutability": "nonpayable",
      "type": "function"
    },
    {
      "inputs": [],
      "name": "rootNode",
      "outputs": [
        {
          "internalType": "bytes32",
          "name": "",
          "type": "bytes32"
        }
      ],
      "stateMutability": "view",
      "type": "function"
    }
  ],
  "bytecode": "0x608060405234801561001057600080fd5b5060405161060d38038061060d833981810160405281019061003291906100aa565b816000806101000a81548173ffffffffffffffffffffffffffffffffffffffff021916908373ffffffffffffffffffffffffffffffffffffffff160217905550806001819055505050610162565b60008151905061008f81610134565b92915050565b6000815190506100a48161014b565b92915050565b600080604083850312156100bd57600080fd5b60006100cb85828601610095565b92505060206100dc85828601610080565b9150509250929050565b60006100f182610114565b9050919050565b6000819050919050565b600061010d826100e6565b9050919050565b600073ffffffffffffffffffffffffffffffffffffffff82169050919050565b61013d816100f8565b811461014857600080fd5b50565b61015481610102565b811461015f57600080fd5b50565b61049c806101716000396000f3fe608060405234801561001057600080fd5b506004361061004c5760003560e01c80633f15457f14610051578063af9f26e41461006f578063d22057a91461009f578063faff50a8146100bb575b600080fd5b6100596100d9565b6040516100669190610313565b60405180910390f35b61008960048036038101906100849190610220565b6100fd565b604051610096919061032e565b60405180910390f35b6100b960048036038101906100b49190610249565b610115565b005b6100c36101f0565b6040516100d091906102c1565b60405180910390f35b60008054906101000a900473ffffffffffffffffffffffffffffffffffffffff1681565b60026020528060005260406000206000915090505481565b4260026000848152602001908152602001600020541061013457600080fd5b6312bed400426101449190610349565b600260008481526020019081526020016000208190555060008054906101000a900473ffffffffffffffffffffffffffffffffffffffff1673ffffffffffffffffffffffffffffffffffffffff166306ab592360015484846040518463ffffffff1660e01b81526004016101ba939291906102dc565b600060405180830381600087803b1580156101d457600080fd5b505af11580156101e8573d6000803e3d6000fd5b505050505050565b60015481565b60008135905061020581610438565b92915050565b60008135905061021a8161044f565b92915050565b60006020828403121561023257600080fd5b60006102408482850161020b565b91505092915050565b6000806040838503121561025c57600080fd5b600061026a8582860161020b565b925050602061027b858286016101f6565b9150509250929050565b61028e8161039f565b82525050565b61029d816103b1565b82525050565b6102ac816103e5565b82525050565b6102bb816103db565b82525050565b60006020820190506102d66000830184610294565b92915050565b60006060820190506102f16000830186610294565b6102fe6020830185610294565b61030b6040830184610285565b949350505050565b600060208201905061032860008301846102a3565b92915050565b600060208201905061034360008301846102b2565b92915050565b6000610354826103db565b915061035f836103db565b9250827fffffffffffffffffffffffffffffffffffffffffffffffffffffffffffffffff0382111561039457610393610409565b5b828201905092915050565b60006103aa826103bb565b9050919050565b6000819050919050565b600073ffffffffffffffffffffffffffffffffffffffff82169050919050565b6000819050919050565b60006103f0826103f7565b9050919050565b6000610402826103bb565b9050919050565b7f4e487b7100000000000000000000000000000000000000000000000000000000600052601160045260246000fd5b6104418161039f565b811461044c57600080fd5b50565b610458816103b1565b811461046357600080fd5b5056fea2646970667358221220c424e723f9e8cf463c15829b8c5a44caed022b3ba7b32571a51f353a158a176b64736f6c63430008040033",
  "linkReferences": {},
  "deployedLinkReferences": {}
}